:100000000C9416030C943E030C943E030C943E0394
:100010000C943E030C943E030C943E030C943E035C
:100020000C943E030C943E030C943E030C943E034C
:100030000C943E030C943E030C943E030C943E033C
:100040000C9408120C943E030C943E030C943E0353
:100050000C943E030C943E030C943E030C943E031C
:100060000C9452120C943E0300000000003E5B4FC3
:100070005B3E3E6B4F6B3E1C3E7C3E1C183C7E3C08
:10008000181C577D571C1C5E7F5E1C00183C180016
:10009000FFE7C3E7FF0018241800FFE7DBE7FF30A6
:1000A000483A060E2629792926407F050507407F14
:1000B00005253F5A3CE73C5A7F3E1C1C08081C1C87
:1000C0003E7F14227F22145F5F005F5F06097F017D
:1000D0007F006689956A606060606094A2FFA29468
:1000E00008047E040810207E201008082A1C080836
:1000F0001C2A08081E101010100C1E0C1E0C303884
:100100003E3830060E3E0E06000000000000005F84
:1001100000000007000700147F147F14242A7F2AA0
:100120001223130864623649562050000807030062
:10013000001C2241000041221C002A1C7F1C2A08AE
:10014000083E080800807030000808080808000011
:1001500060600020100804023E5149453E00427F85
:10016000400072494949462141494D331814127FD4
:100170001027454545393C4A494931412111090774
:100180003649494936464949291E000014000000F5
:1001900040340000000814224114141414140041C7
:1001A00022140802015909063E415D594E7C121184
:1001B000127C7F494949363E414141227F414141BC
:1001C0003E7F494949417F090909013E4141517337
:1001D0007F0808087F00417F41002040413F017FA8
:1001E000081422417F404040407F021C027F7F0470
:1001F00008107F3E4141413E7F090909063E4151B9
:10020000215E7F09192946264949493203017F01A8
:10021000033F4040403F1F2040201F3F4038403FA9
:10022000631408146303047804036159494D4300BF
:100230007F4141410204081020004141417F0402F6
:10024000010204404040404000030708002054548D
:1002500078407F284444383844444428384444286B
:100260007F385454541800087E090218A4A49C78BE
:100270007F0804047800447D40002040403D007F1A
:100280001028440000417F40007C047804787C08FA
:100290000404783844444438FC18242418182424CE
:1002A00018FC7C08040408485454542404043F44B3
:1002B000243C4040207C1C2040201C3C4030403CE2
:1002C00044281028444C9090907C4464544C440042
:1002D00008364100000077000000413608000201A6
:1002E0000204023C2623263C1EA1A161123A404092
:1002F000207A38545455592155557941225454780F
:1003000042215554784020545579400C1E527212A7
:100310003955555559395454545939555454580030
:1003200000457C410002457D420001457C407D1234
:1003300011127DF0282528F07C5455450020545496
:100340007C547C0A097F4932494949323A44444441
:100350003A324A4848303A4141217A3A424020787C
:10036000009DA0A07D3D4242423D3D4040403D3C7D
:1003700024FF2424487E4943662B2FFC2F2BFF09A2
:1003800029F620C0887E0903205454794100004496
:100390007D413048484A32384040227A007A0A0A81
:1003A000727D0D19317D2629292F282629292926F4
:1003B00030484D4020380808080808080808382F39
:1003C00010C8ACBA2F102834FA00007B00000814C3
:1003D0002A142222142A14085500550055AA55AA99
:1003E00055AAFF55FF55FF000000FF00101010FF39
:1003F00000141414FF001010FF00FF1010F010F094
:10040000141414FC001414F700FF0000FF00FF1484
:1004100014F404FC141417101F10101F101F1414D0
:10042000141F00101010F0000000001F101010101A
:100430001F10101010F010000000FF10101010100E
:1004400010101010FF10000000FF140000FF00FF4C
:1004500000001F10170000FC04F4141417101714E8
:1004600014F404F40000FF00F7141414141414140A
:10047000F700F7141414171410101F101F1414147D
:10048000F4141010F010F000001F101F0000001FE7
:1004900014000000FC140000F010F01010FF10FF1A
:1004A000141414FF141010101F00000000F010FFAF
:1004B000FFFFFFFFF0F0F0F0F0FFFFFF0000000093
:1004C00000FFFF0F0F0F0F0F3844443844FC4A4A17
:1004D0004A347E02020606027E027E0263554941CC
:1004E000633844443C04407E201E2006027E020203
:1004F00099A5E7A5991C2A492A1C4C7201724C3017
:100500004A4D4D303048784830BC625A463D3E49ED
:100510004949007E0101017E2A2A2A2A2A44445F91
:10052000444440514A444040444A51400000FF0185
:1005300003E080FF000008086B6B08361236243693
:10054000060F090F060000181800000010100030F8
:1005500040FF0101001F01011E00191D1712003C80
:100560003C3C3C0000000000EF03038002CF03008E
:10057000C130ED0464031281E803850078CB0539AE
:100580002C003402F70120EA020000C00123C1015F
:1005900010C5023E28C701863601483701003A01DE
:1005A00055B1020018B603088227F20100260101A6
:1005B000E00F0F312B0C0E084EF1370710030E0918
:1005C00000E10F000E1403110731C148080F0C3170
:1005D000360F118029800000000000240027002A27
:1005E00000000000080002010000030407000000F2
:1005F00000000000000102040810204080010204F5
:100600000810200102040810200000000025002826
:10061000002B000404040404040404020202020285
:1006200002030303030303006D13581511241FBEB7
:10063000CFEFD8E0DEBFCDBF22E0ACE6B1E001C035
:100640001D92A733B207E1F711E0A0E0B1E0ECE5BD
:10065000F3E302C005900D92AC36B107D9F713E071
:10066000C5E1D3E004C02197FE010E94A417C43164
:10067000D107C9F70E941B140C94A1190C94000017
:10068000AF92BF92CF92DF92EF92FF920F931F93A0
:10069000CF93DF936C017B018B01040F151FEB01DE
:1006A0005E01AE18BF08C017D10759F06991D60195
:1006B000ED91FC910190F081E02DC6010995892B07
:1006C00079F7C501DF91CF911F910F91FF90EF90C6
:1006D000DF90CF90BF90AF90089590E0FC01EF5174
:1006E000FA4F2491FC01EB50FA4F3491FC01ED5E7E
:1006F000F94FE491EE23C9F0222339F0233001F1C0
:10070000A8F4213019F1223029F1F0E0EE0FFF1F9B
:10071000E75FF94FA591B4918FB7F894EC9161110F
:1007200026C030953E233C938FBF08952730A9F013
:100730002830C9F0243049F7809180008F7D03C0B4
:10074000809180008F7780938000DFCF84B58F7792
:1007500084BDDBCF84B58F7DFBCF8091B0008F77D8
:100760008093B000D2CF8091B0008F7DF9CF3E2B27
:10077000DACFCF93DF9390E0FC01EB50FA4F249156
:100780008D5E994FFC0184918823D1F090E0880F11
:10079000991FFC01E952FA4FA591B491FC01E75F62
:1007A000F94FC591D49161110EC09FB7F8948C9107
:1007B000E22FE0958E238C932881E223E8839FBF6C
:1007C000DF91CF9108958FB7F894EC91E22BEC93E1
:1007D0008FBFF6CF3FB7F8948091E3019091E40189
:1007E000A091E501B091E60126B5A89B05C02F3F79
:1007F00019F00196A11DB11D3FBFBA2FA92F982F47
:100800008827BC01CD01620F711D811D911D42E041
:10081000660F771F881F991F4A95D1F708958F9209
:100820009F92AF92BF92CF92DF92EF92FF924B01D5
:100830005C010E94EA036B017C010E94EA036C19CF
:100840007D098E099F09683E734081059105A8F3D3
:1008500021E0821A9108A108B10888EEC80E83E051
:10086000D81EE11CF11C81149104A104B10429F7E4
:10087000FF90EF90DF90CF90BF90AF909F908F90C0
:10088000089520919401260F3327331F213231051B
:10089000ECF42091B801FC0190E080E0243069F094
:1008A00082E00895A09194012191AC014C585E4FD3
:1008B000A40FB52FB11D2C930196861798F3809144
:1008C0009401680F6093940180E0089581E0089599
:1008D00008958FEF9FEF08958FEF9FEF0895809118
:1008E0006D0190E09195819591090895CF93DF93E3
:1008F000CB01EA01642F0E944104CE01DF91CF9128
:100900000895CF93DF931F92CDB7DEB7698361E07F
:10091000CE0101960E94410481E090E00F90DF91AA
:10092000CF910895FC01A5A1B6A18C9192A5892330
:100930008C93A5A1B6A18C9191A5892B8C93089538
:100940000F931F93CF93DF93EC018B018DA981113E
:100950000DC01EBD0DB407FEFDCF0EBD0DB407FECC
:10096000FDCFDF91CF911F910F9108958130E9F470
:1009700080E1E9A1FAA1908117FF14C02DA1922B6B
:100980009083EBA1FCA190812FA1922B9083EBA1EE
:10099000FCA1908128A592239083000F111F815004
:1009A00041F7DFCF2EA19223EBCFEF8DF8A110837B
:1009B000CE010E949204EF8DF8A10083CE01DF9159
:1009C000CF911F910F910C949204FC0185A9811184
:1009D00005C06EBD0DB407FEFDCF08958130E1F472
:1009E00088E0A1A1B2A19C9167FF13C025A1922B21
:1009F0009C93A3A1B4A19C9127A1922B9C93660FD9
:100A0000A3A1B4A19C9120A592239C93815049F766
:100A1000089526A19223ECCFA78DB0A16C93CF01AE
:100A20000C949204CF93DF93EC01ED8DFE8D8081C9
:100A30009CA989238083CE010E94E504ED8DFE8D63
:100A400080819BA9892B8083DF91CF910895AF92FC
:100A5000BF92CF92DF92EF92FF920F931F93CF93AB
:100A6000DF93EC015B016A01215031097901E60E47
:100A7000F71E01501109040F151F6AE20E941205AA
:100A8000B501CE010E94A004B701CE010E94A004CE
:100A90006BE2CE010E941205B601CE010E94A004B5
:100AA000B801CE010E94A0046CE2CE01DF91CF918B
:100AB0001F910F91FF90EF90DF90CF90BF90AF907C
:100AC0000C941205FC0185A9811104C091A182A199
:100AD0009CBD8DBD08951F93CF93DF93EC01162F1E
:100AE000E881F9810284F385E02D0995112371F0E5
:100AF0006DADCE010E941205E881F9810688F78963
:100B0000E02DCE01DF91CF911F9109946EADF1CF11
:100B1000AF92BF92CF92DF92EF92FF920F931F930B
:100B2000CF93DF93EC0177FD38C0888599856817EE
:100B300079079CF557FD31C08A859B854817590771
:100B400064F569017A015B01E881F9810284F3852A
:100B5000E02DCE010995E881F98102A4F3A5E02DED
:100B600001E010E021E030E0A701B501CE010995D8
:100B7000B601CE010E94A004E881F9810688F789B8
:100B8000E02DCE01DF91CF911F910F91FF90EF905B
:100B9000DF90CF90BF90AF900994DF91CF911F91DC
:100BA0000F91FF90EF90DF90CF90BF90AF9008959E
:100BB0008F929F92AF92BF92CF92DF92EF92FF926D
:100BC0000F931F93CF93DF93EC0149015701E88105
:100BD000F98102A4F3A5E02D09959401D8010E94A2
:100BE00095176B017C01C114D104E104F10409F4EF
:100BF00090C08DA9811115C081E0C81AD108E10803
:100C0000F1088FEFC816D806E806F80609F481C087
:100C1000BEBC0DB407FEFDCFAEBC0DB407FEFDCFCC
:100C2000EBCF813009F045C081E0C81AD108E10856
:100C3000F1088FEFC816D806E806F80609F469C06F
:100C40009B2D88E0E9A1FAA1208197FF2CC03DA14E
:100C5000232B2083EBA1FCA120813FA1232B208308
:100C6000EBA1FCA1208138A523232083990F81507B
:100C700049F79A2D88E0E9A1FAA1208197FF16C0D3
:100C80003DA1232B2083EBA1FCA120813FA1232B9D
:100C90002083EBA1FCA1208138A523232083990F79
:100CA000815049F7C1CF3EA12323D3CF3EA12323B7
:100CB000E9CFBA1016C0CC0CDD1CEE1CFF1CEF8D6A
:100CC000F8A1B08281E0C81AD108E108F1088FEFDD
:100CD000C816D806E806F806E1F0CE010E94920494
:100CE000F1CF81E0C81AD108E108F1088FEFC816EA
:100CF000D806E806F80669F0EF8DF8A1B082CE01BB
:100D00000E949204EF8DF8A1A082CE010E9492046D
:100D1000E8CFDF91CF911F910F91FF90EF90DF907F
:100D2000CF90BF90AF909F908F9008958F929F9299
:100D3000AF92BF92CF92DF92EF92FF920F931F93E9
:100D4000CF93DF935C014B016A01E90177FD52C04B
:100D5000DC0118968D919C91681779070CF04AC0B8
:100D6000209709F447C037FF07C0C9010196C80E94
:100D7000D91ED195C195D109F50182859385C816F3
:100D8000D906C4F5A6014C0F5D1F9A012150310907
:100D900037FD30C0D7FE03C0EA01D12CC12C281783
:100DA00039071CF0EC01CC19DD09D501ED91FC915E
:100DB0000284F385E02DC501099578018E0121E0BB
:100DC00030E0A601B401C5010E94D805D501ED911E
:100DD000FC910688F789E02DC501DF91CF911F9125
:100DE0000F91FF90EF90DF90CF90BF90AF909F90CA
:100DF0008F900994DF91CF911F910F91FF90EF9009
:100E0000DF90CF90BF90AF909F908F9008958F927A
:100E10009F92AF92BF92CF92DF92EF92FF920F9389
:100E20001F93CF93DF935C016B014A01E90157FDEA
:100E300052C0DC011A968D919C91481759070CF00D
:100E40004AC0209709F447C037FF07C0C90101967F
:100E5000C80ED91ED195C195D109F501808591851E
:100E6000C816D906C4F5A6014C0F5D1F9A01215082
:100E7000310937FD30C0D7FE03C0EA01D12CC12CA7
:100E8000281739071CF0EC01CC19DD09D501ED91CB
:100E9000FC910284F385E02DC5010995780101E0FC
:100EA00010E09E01A401B601C5010E94D805D5013C
:100EB000ED91FC910688F789E02DC501DF91CF9176
:100EC0001F910F91FF90EF90DF90CF90BF90AF9068
:100ED0009F908F900994DF91CF911F910F91FF9078
:100EE000EF90DF90CF90BF90AF909F908F9008953C
:100EF0008F929F92AF92BF92CF92DF92EF92FF922A
:100F00000F931F93CF93DF934C016B015A01E901BB
:100F1000209709F46CC00115110509F468C037FF6A
:100F200007C0C9010196C80ED91ED195C195D10936
:100F3000F401A085B185CA16DB060CF058C017FF76
:100F400007C0C8010196A80EB91E11950195110997
:100F5000F40182859385A816B9060CF048C0F60105
:100F6000EC0FFD1FAF014150510957FD40C0B501C5
:100F7000600F711F9B012150310937FD38C0D7FE2A
:100F800003C0EF01D12CC12CB7FE03C08B01B12CE3
:100F9000A12C4A175B071CF0ED01CC19DD092817BD
:100FA00039071CF08C010A191B09D401ED91FC9141
:100FB0000284F385E02DC40109959E01A501B601C7
:100FC000C4010E94D805D401ED91FC910688F789EF
:100FD000E02DC401DF91CF911F910F91FF90EF9011
:100FE000DF90CF90BF90AF909F908F900994DF914A
:100FF000CF911F910F91FF90EF90DF90CF90BF9016
:10100000AF909F908F900895EF92FF920F931F9350
:10101000CF93DF9377FD32C0DC011896ED91FC9100
:101020006E177F075CF52115310541F137FF07C0C9
:10103000F90131964E0F5F1F319521953109DC0181
:101040001A96ED91FC914E175F07C4F4EA01C20FA6
:10105000D31FDE011197B7FD11C057FF03C09E01DA
:1010600050E040E0AE17BF071CF09F01241B350B7A
:101070007801890121E030E00E94D805DF91CF910D
:101080001F910F91FF90EF900895EF92FF920F93B1
:101090001F93CF93DF9357FD31C0DC011A96ED917A
:1010A000FC914E175F0754F52115310539F137FFD3
:1010B00007C0F90131966E0F7F1F319521953109D7
:1010C000DC011896ED91FC916E177F07BCF4EB01E3
:1010D000C20FD31FDE011197B7FD10C077FF03C009
:1010E0009E0170E060E0AE17BF071CF09F01261B59
:1010F000370B780101E010E00E94D805DF91CF9115
:101100001F910F91FF90EF9008958F929F92AF9251
:10111000BF92CF92DF92EF92FF920F931F93CF93E4
:10112000DF9347012115310509F44BC00115110565
:1011300009F447C037FF07C0F90131966E0F7F1FD2
:10114000319521953109DC011896AD90BC906A1556
:101150007B05BCF517FF07C0F80131964E0F5F1FE6
:10116000119501951109DC011A96ED91FC914E172C
:101170005F073CF56B01C20ED31EE6012197D7FD38
:1011800020C07A01E00EF11ED7011197B7FD19C0FA
:1011900077FF03C0960170E060E057FF03C087014E
:1011A00050E040E0CA15DB051CF09501261B370B0B
:1011B000AE17BF071CF08F01041B150B74010E94B2
:1011C000D805DF91CF911F910F91FF90EF90DF90A5
:1011D000CF90BF90AF909F908F900895EF92FF9225
:1011E0000F931F93CF93DF93EC0177FD22C0888587
:1011F000998568177907ECF457FD1BC08A859B8594
:1012000048175907B4F47901E881F98102A4F3A5DC
:10121000E02D01E010E021E030E0CE010995B701BA
:10122000CE01DF91CF911F910F91FF90EF900C9421
:10123000A004DF91CF911F910F91FF90EF9008953F
:10124000CF93DF93EC010E9462058FA987FD06C052
:10125000EB8DFC8D80819AA989238083DF91CF91CA
:1012600008950895AF92BF92CF92DF92EF92FF92CE
:101270000F931F93CF93DF93EC01E62E8A01A22EEA
:101280000E9462058FA987FD06C0EB8DFC8D8081D1
:101290009AA989238083ED8DFE8D80819CA9892365
:1012A00080836E2DCE010E94E504ED8DFE8D808140
:1012B0009BA9892B8083D12CC12CB12CCA14DB04AF
:1012C000E4F48DA97801823079F488A9882361F04B
:1012D000F801619171917F01CE010E94A004FFEF9E
:1012E000CF1ADF0A8701EACFFFEFEF1AFF0AF801F2
:1012F0006491CE010E94E504F2CF8FA987FD06C05C
:10130000EB8DFC8D808199A9892B8083DF91CF9112
:101310001F910F91FF90EF90DF90CF90BF90AF9013
:101320000895611106C060E220E050E040E00C94B6
:10133000320961E2F9CF0F931F93CF93DF931F928E
:10134000CDB7DEB78C016370DC0156966C9356976F
:10135000623009F468C0633009F46AC0613009F48E
:1013600056C088E4898380EF90E019969C938E9311
:10137000189780E491E01B969C938E931A97C8016E
:101380000E946205D801D7968C91D79787FD09C036
:101390005B96ED91FC915C978081D2969C9189231C
:1013A0008083D8015D96ED91FC915E978081D49603
:1013B0009C918923808366E3C8010E94E504D801DB
:1013C0005D96ED91FC915E978081D3969C91D39729
:1013D000892B8083D5968C91823061F16981C80117
:1013E0000E94E504D801D7968C91D79787FD09C054
:1013F0005B96ED91FC915C978081D1969C91892BB5
:1014000080830F90DF91CF911F910F91089588E213
:10141000898380E491E0F8019187808780EF90E0F4
:1014200093878287ACCF88E8898380EF90E09DCF57
:1014300088EEEECFF80180A9882381F269817A8154
:10144000C8010E94A004CECFFC0187A987FD06C079
:10145000A38DB48D9C9181A9892B8C9308950895B7
:10146000FC016370668B84819581268137816130B0
:1014700039F0633029F09187808733872287089578
:10148000318720879387828708952F923F924F92CA
:101490005F926F927F928F929F92AF92BF92CF9204
:1014A000DF92EF92FF920F931F93CF93DF93CDB70D
:1014B000DEB76A970FB6F894DEBF0FBECDBF9A8F26
:1014C000898F7A8369834A01D22E18870F83370167
:1014D000BC2CDC0159962D913C915A972115310570
:1014E00009F015C118968D919C9119976817790785
:1014F0000CF0D7C11A968D919C91481759070CF0A2
:10150000D0C14C2C512CB6E0CB9E600D711D112426
:101510007C876B87161617060CF0C3C1EA2DF0E026
:10152000FA87E98793E0EE0FFF1F9A95E1F7F88BB2
:10153000EF87CF01840F951F181619060CF0B1C163
:10154000A98DBA8D58968C91811104C0BFEABD1542
:1015500008F4D394A98DBA8DED91FC911197028472
:10156000F385E02DCD010995B5E0DB9EC001112486
:10157000E981FA81FC83EB83312C212C9C012859D1
:101580003F4F388F2F8B4A2D50E05E8B4D8BEF896C
:10159000F88DE20DF31D44919E828D82D12CC12CD9
:1015A00069817A81620D731D7A8B698B842F90E03B
:1015B0009C8B8B8BE98DFA8DA081B18140FF82C01D
:1015C000F1E0BF126FC0AF126DC01C96ED91FC919F
:1015D0002F813885A4014C0D5D1D69897A89898D1B
:1015E0009A8D0995EB89FC89F595E7954E2F5FEF6C
:1015F000C51AD50A6D817E818D899E89680F791FF4
:101600007E836D8398E0C916D10481F6AFEF2A1A64
:101610003A0AEB81FC81E40DF51DFC83EB83F5E0D8
:101620002F16310409F0B3CF2F81388526153705E1
:10163000B9F0A98DBA8DED91FC91B1E0BB1257C004
:10164000AB1255C069817A816B5F7F4F0088F18949
:10165000E02D830128E030E0A401898D9A8D099561
:10166000A98DBA8DED91FC9111970688F789E02D2F
:10167000CD016A960FB6F894DEBF0FBECDBFDF91E5
:10168000CF911F910F91FF90EF90DF90CF90BF907F
:10169000AF909F908F907F906F905F904F903F9012
:1016A0002F9009941E96ED91FC91EF80F8840985A6
:1016B0001A8592014D815E816B817C81898D9A8D25
:1016C000099590CF2F8138852615370509F48ACFE3
:1016D00031E0B31207C0A31205C01C96ED91FC9136
:1016E000930178CF1E96ED91FC917301E0CF6B854D
:1016F0007C85641975090684F785E02D73010F85D3
:1017000018899201A401898D9A8D0995A9CFF901B3
:1017100034969491329745915491D91AB7E0DB9E53
:10172000400D511D1124F901259134913C8B2B8BD7
:10173000FA0125903490FA013296749031963491E2
:10174000398B329664903196449041E04C1518F0F4
:101750004A1508F07FC0662D062C000C770B7C83A1
:101760006B83842D042C000C990B9E838D83A98D93
:10177000BA8DED91FC9111970284F385E02DCD0196
:101780000995512CD12CC12CEA2DF0E0FA87E9877C
:101790002B2D30E03C872B87A401440D511D47FCC5
:1017A0005A95588F4F8B69817A81660D711D67FC40
:1017B0007A957E876D877989C71608F051CF2C2DD1
:1017C00030E04D815E81420F531FA985BA854A9F43
:1017D000C0014B9F900D5A9F900D1124FC01E80D04
:1017E000F91DF88BEF87852D612C4F89588D420F9D
:1017F000531F5E8B4D8B671408F050C044244394F4
:10180000480E877041F4C1010196EB89FC89E20D15
:10181000F31DD4901C01D7FE19C0A98DBA8DED918E
:10182000FC91662D70E0B1E0BB1219C0AB1217C07D
:101830002D853E85620F731F0484F585E02D2F8171
:1018400038854D895E89898D9A8D0995DD0C639463
:10185000842DD1CF1E821D821C821B8288CF4B819A
:101860005C81640F751FAB85BC856A9FC0016B9F4F
:10187000900D7A9F900D112469817A81680F791FEC
:101880000684F785E02DEF80F88409851A859D018F
:101890004F855889898D9A8D0995D8CF570CC39457
:1018A0008ACF6A960FB6F894DEBF0FBECDBFDF9128
:1018B000CF911F910F91FF90EF90DF90CF90BF904D
:1018C000AF909F908F907F906F905F904F903F90E0
:1018D0002F9008958F929F92AF92CF92EF92FF92A6
:1018E0000F931F93CF93DF93EC01262F898D9A8D51
:1018F000009709F051C06A30D1F41D861C868D898D
:1019000048E0849F900111248E859F85820F931F4C
:101910009F878E8781E090E0DF91CF911F910F919B
:10192000FF90EF90CF90AF909F908F9008956D3083
:1019300089F3CC88AD888F898823C1F08C859D85FB
:1019400036E0C39E800D911D1124488559854817A6
:10195000590764F44E855F851D861C8638E0A39E7A
:10196000C0011124840F951F9F878E87EA88FB880A
:10197000088919894E855F856C857D85CE010E9419
:10198000450A2C898C859D8546E0249F800D911DFC
:1019900011249D878C87BECF6A3069F41D861C8612
:1019A000FC013896E4912D898E859F85E29F800DFC
:1019B000911D1124ADCF6D3009F4ACCFFC013496EC
:1019C0003491631708F4A6CF3296E491E61708F431
:1019D000A1CFFC01329685909490462F431B342F63
:1019E00047E0349F800C911C1124F401329634910D
:1019F0003196E4913323A9F1EE2399F1CC88F401D7
:101A00003596E491AD884F89442301F10E2E000CE8
:101A1000FF0BE30FF11DCE9EA001CF9E500D1124B0
:101A20006C857D85460F571F688579856417750716
:101A30006CF44E855F851D861C86FC013896E4910A
:101A4000AE9E400D511D11245F874E87EA88FB88AA
:101A5000088919894E855F856C857D85CE010E9438
:101A6000450AF4013496E4912C898C859D85E29F8A
:101A7000800D911D11248DCF6F927F928F929F9236
:101A8000AF92BF92CF92DF92EF92FF920F931F938C
:101A9000CF93DF93EC016B015A0139014801E881D2
:101AA000F9810284F385E02D0995E881F9810288A6
:101AB000F389E02D87019301A501B601CE010995B7
:101AC000A501480D591D41505109E881F98102884D
:101AD000F389E02D9301B601CE010995E881F981E2
:101AE0000088F189E02D9401A501B601CE01099588
:101AF000C60CD71CB60161507109E881F9810088D4
:101B0000F189E02D9401A501CE010995E881F981C3
:101B10000688F789E02DCE01DF91CF911F910F91BB
:101B2000FF90EF90DF90CF90BF90AF909F908F90FD
:101B30007F906F9009946F927F928F929F92AF9255
:101B4000BF92CF92DF92EF92FF920F931F93CF93AA
:101B5000DF935C01EB016A01490138018701DC0177
:101B6000ED91FC916217730719F5641675062CF058
:101B7000962D872D3A01C92ED82E960126193709A0
:101B80002F5F3F4F048CF58DE02DA301BE01C501F1
:101B90000995DF91CF911F910F91FF90EF90DF900A
:101BA000CF90BF90AF909F908F907F906F9008954F
:101BB0004615570591F42617370724F0892D4B0158
:101BC000C22FD82F9E01281939092F5F3F4F068C4D
:101BD000F78DE02DA601B401DACF0284F385E02D64
:101BE0000995D501ED91FC910488F589E02D8301DB
:101BF0009401A601BE01C5010995D501ED91FC91A5
:101C00000688F789E02DC501DF91CF911F910F91D3
:101C1000FF90EF90DF90CF90BF90AF909F908F900C
:101C20007F906F900994EF92FF920F931F93DC01C6
:101C30001A960D911C911B9718962D913C9119970E
:101C4000ED91FC9100A0F1A1E02D7B0150E040E07E
:101C500070E060E009951F910F91FF90EF9008955B
:101C60004F925F926F927F928F929F92AF92BF92AC
:101C7000CF92DF92EF92FF920F931F93CF93DF9358
:101C80006C012B015A0139014801DC01ED91FC91F5
:101C90000284F385E02D0995E201640C751CD601E0
:101CA000ED91FC91C615D7055CF40088F189E02D13
:101CB00087019401A501BE01C60109952196EFCFC8
:101CC0000688F789E02DC601DF91CF911F910F9112
:101CD000FF90EF90DF90CF90BF90AF909F908F904C
:101CE0007F906F905F904F9009948F929F92AF92E8
:101CF000BF92CF92DF92EF92FF920F931F93CF93F9
:101D0000DF93EC015B014A016901E881F9810284FA
:101D1000F385E02D099595012C0D3D1D21503109CC
:101D2000E881F9810488F589E02D78018401A40116
:101D3000B501CE010995E881F9810688F789E02D82
:101D4000CE01DF91CF911F910F91FF90EF90DF9027
:101D5000CF90BF90AF909F908F9009948F929F9259
:101D6000AF92BF92CF92DF92EF92FF920F931F93A9
:101D7000CF93DF93EC015B014A0169017801E881AF
:101D8000F9810284F385E02D0995C80CD91C8601E0
:101D900001501109E881F9810488F589E02D950148
:101DA000A401B501CE010995E881F9810688F7897A
:101DB000E02DCE01DF91CF911F910F91FF90EF9019
:101DC000DF90CF90BF90AF909F908F900994EF924B
:101DD000FF920F931F93DC01ED91FC9100A0F1A104
:101DE000E02D09951F910F91FF90EF9008950F93AB
:101DF0001F93DC01ED91FC91068CF78DE02D099588
:101E00001F910F9108950F931F93DC01ED91FC91A9
:101E1000048CF58DE02D09951F910F910895DC013B
:101E2000ED91FC910084F185E02D09942F923F9271
:101E30004F925F926F927F928F929F92AF92BF92DA
:101E4000CF92DF92EF92FF920F931F93CF93DF9386
:101E500000D000D000D0CDB7DEB73C016A013E8390
:101E60002D83FC82EB825801A41AB50AB7FE03C089
:101E7000B194A194B1088D809E80861A970A97FE2E
:101E800003C09194819491088A149B045CF0902F74
:101E9000812F0D811E819D838E839C2D8D2D6B0145
:101EA000692F782F0C151D055CF09D818E817E8336
:101EB0006D83692F782F902F812F8601C92ED82E00
:101EC0001601201A310A2B012D813E81421A530A34
:101ED00057FE03C0519441945108710137FE03C06D
:101EE0003FEFE31AF30AF594E7948D819E818617FC
:101EF00097075CF5A1E0B0E0BA83A983C016D106CC
:101F00004CF1D301ED91FC910484F585E02D2B81FA
:101F10003C81A8016D817E818A149B041CF04D8157
:101F20005E81B801C3010995E418F508F7FE0AC0FF
:101F30002D813E8189819A81280F391F3E832D830F
:101F4000E20CF31C0F5F1F4FD9CF2FEF3FEF3A8307
:101F50002983D4CF26960FB6F894DEBF0FBECDBF2F
:101F6000DF91CF911F910F91FF90EF90DF90CF9075
:101F7000BF90AF909F908F907F906F905F904F90A9
:101F80003F902F900895089590E080E008958F92FB
:101F90009F92AF92BF920F931F93CF93DF93CDB7D2
:101FA000DEB7A1970FB6F894DEBF0FBECDBF19A262
:101FB000423008F44AE08E010F5D1F4F842E912CB1
:101FC000B12CA12CA50194010E947317E62FB90131
:101FD000CA01EA3044F5E05DD801EE938D01232B70
:101FE000242B252B79F790E080E0109769F0FD0114
:101FF00001900020E9F73197AF014A1B5B0BBD014F
:1020000080EF91E00E944003A1960FB6F894DEBFE6
:102010000FBECDBFDF91CF911F910F91BF90AF90B9
:102020009F908F900895E95CD7CF0F931F93CF9324
:10203000DF938C01EB018091EA019091EB01009715
:1020400039F02091EC013091ED0126173707B8F4F3
:10205000BE016F5F7F4F0E94CF180097E1F0909311
:10206000EB018093EA01D093ED01C093EC01209144
:10207000EE013091EF01232B11F4FC011082D0937B
:10208000EF01C093EE01B8018091EA019091EB015C
:102090000E949A1914C08091EA019091EB01009777
:1020A00011F00E9446181092EB011092EA01109272
:1020B000EF011092EE011092ED011092EC018AEE08
:1020C00091E0DF91CF911F910F9108950E948C199B
:1020D0001F93CF93DF9385ED8093BC0080917001B7
:1020E00090917101A0917201B09173010796A11DA9
:1020F000B11D23E0B695A795979587952A95D1F7B9
:102100002091BC0024FD03C01092B80152C0409140
:102110007001509171016091720170917301452BB2
:10212000462B472B69F30097A105B10541F025E344
:102130002A95F1F700000197A109B109E1CF80913B
:102140006F01C1E0C0936E01882399F1D091B8006E
:102150001091BA008091BC008A7B8093BC0060E043
:1021600082E10E946D0360E083E10E946D031092A2
:10217000B801C093BA011092B90161E082E10E94F6
:102180006D0361E083E10E946D038091B9008E7F51
:102190008093B9008091B9008D7F8093B90088E465
:1021A0008093B80085E48093BC001093BA00D0936C
:1021B000B800DF91CF911F910895CF92DF92EF92F7
:1021C000FF920F931F93CF93DF93EC016A017B0182
:1021D000C114D104E104F10431F4C12C42E1D42E44
:1021E0004AE7E42EF12C8FA987FD07C061E00E9429
:1021F000B90361E08FA90E946D0361E088AD0E9480
:10220000B90361E088AD0E946D038DA98111A3C05F
:1022100040E052E16AE770E0C416D506E606F7062C
:1022200040F476956795579547958F5F8630A1F76F
:1022300087E0982F906A969599A3809581708AA3DC
:102240001BA21CA21DA21EA21FB7F89480916C01B4
:10225000811127C0EDE1F6E08491EFEFF5E0949174
:10226000E82FF0E0EE0FFF1FE952FA4FA591B4916D
:10227000EC91E92321F461E08AE00E946D0361E0C2
:102280008AE00E94B9038CB580618CBD8CB58064F6
:102290008CBD61E08DE00E94B90361E08BE00E949B
:1022A000B90380916C018F5F80936C011FBF8EA971
:1022B00087FD21C061E00E94B90361E08EA90E9400
:1022C0006D0364E670E080E090E00E940F0460E03F
:1022D0008EA90E946D0364E670E080E090E00E94A9
:1022E0000F0461E08EA90E946D0368EC70E080E04D
:1022F00090E00E940F048EA987FF0DC020E050E0FF
:1023000040E061E0CE010E94320966E970E080E0C1
:1023100090E00E940F0408E615E0C8010196F8015C
:102320006491662309F463C00E5F1F4FFC01F490B3
:10233000EF2CE894E7F82E2DA801CE010E94320977
:102340000E0D111DF7FEE9CF66E970E080E090E028
:102350000E940F04E2CF03E116E0F12C8130B9F4C2
:1023600061E08AA50E94B90360E08AA50E946D031E
:1023700061E08CA50E94B90360E08CA50E946D030A
:102380008BA587FD94CF60E00E94B90390CFF80140
:102390008491E82FF0E0EE0FFF1FE75FF94F859182
:1023A00094912F8D38A12817390741F461E08F2DC2
:1023B0000E94B90360E08F2D0E946D03F3940F5FBC
:1023C0001F4FF4E1FF12E3CF61E08EA50E94B90335
:1023D00061E08EA50E946D038FA587FD68CF61E047
:1023E0000E94B90361E08FA50E946D0360CF80EF6A
:1023F00090E09987888780E491E09B878A87DF91C6
:10240000CF911F910F91FF90EF90DF90CF900895A3
:102410001F920F920FB60F9211242F933F938F9319
:102420009F93AF93BF938091DF019091E001A091C2
:10243000E101B091E2013091DE0123E0230F2D375D
:1024400058F50196A11DB11D2093DE018093DF0197
:102450009093E001A093E101B093E2018091E30148
:102460009091E401A091E501B091E6010196A11DD2
:10247000B11D8093E3019093E401A093E501B09333
:10248000E601BF91AF919F918F913F912F910F9056
:102490000FBE0F901F90189526E8230F0296A11DDE
:1024A000B11DD2CF1F920F920FB60F9211242F930E
:1024B0003F934F935F936F937F938F939F93AF93CC
:1024C000BF93EF93FF938091B900887F803609F422
:1024D0004AC0F0F5883209F4A5C018F5803109F436
:1024E00099C0B8F4882309F4F5C0883009F492C083
:1024F000FF91EF91BF91AF919F918F917F916F91DC
:102500005F914F913F912F910F900FBE0F901F90B1
:102510001895883109F486C0803251F78093B7014D
:1025200014C0803409F49BC040F48033B9F388337D
:10253000F9F68093B70185ECAEC0803509F483C00D
:10254000883509F494C0883499F60E946810D0CF79
:10255000883909F48AC038F5883729F050F488366C
:1025600011F0803729F683E08093B8011092B6010C
:1025700055C0883809F479C0803919F0803809F0DD
:10258000B7CF8091B601803208F06FC0E091B601FC
:1025900081E08E0F8093B6018091BB00F0E0EA5697
:1025A000FE4F80833BC0803B39F0D0F4803A09F481
:1025B00077C0883A09F09CCF84E08093B8011092EC
:1025C000950110929401F0E0E0E00995809194016A
:1025D00081110FC081E0809394011092740109C0B1
:1025E000803C09F4A8CF883C09F4A5CF883B09F0CA
:1025F0007FCFE091950181E08E0F80939501F0E00F
:10260000EC58FE4F80818093BB00909195018091A2
:10261000940129C08091DD018093BB0085EC8093FB
:10262000BC0066CF9091DC018091DB01981758F5D2
:10263000E091DC0181E08E0F8093DC01F0E0E55455
:10264000FE4F8081E9CFE091DC0181E08E0F809325
:10265000DC018091BB00F0E0E554FE4F8083909157
:10266000DC018091DB019817C8F285E8D8CFE091B2
:10267000DC0181E08E0F8093DC018091BB00F0E0F3
:10268000E554FE4F80838091BA0181115ECF81E0D5
:102690008093B90184EA8093BC001092B80128CFDE
:1026A00085EC8093BC001092B8018091B601803215
:1026B00030F4E091B601F0E0EA56FE4F10826091EE
:1026C000B60170E086E991E0F0E0E0E00995109253
:1026D000B6010ECF1092B70138CFA0EFB1E013963C
:1026E0001C921E92129720EF30E015963C932E9389
:1026F000149780E491E017969C938E931697199601
:102700003C932E9318971B969C938E931A975696EC
:102710001C9256971D961C921E921C971F961C92F7
:102720001E921E9781E055968C93559754968C93E4
:1027300054972FEF3FEF53963C932E935297519619
:102740003C932E93509757968C93579758961C927C
:1027500058975A961C921E925997D5961C92D597C7
:102760008FEFD6968C93D6978AE0D7968C93D7978F
:1027700089E0D8968C93D897DA961C921E92D997B6
:10278000DC961C921E92DB97DD961C92DD97DE96FE
:102790001C92DE9710922F0210923002109231029A
:1027A0001092320289EE91E090969C938E935F97FF
:1027B000ECE1F6E0E491F0E0EE0FFF1FE75FF94F88
:1027C000859194915E969C938E935D97EEEFF5E0E4
:1027D0008491D3968C93D397EDE1F6E0E491F0E009
:1027E000EE0FFF1FE75FF94F259134915C963C9304
:1027F0002E935B97EFEFF5E0E491D196EC93D197B0
:10280000E095D296EC93D297E82FE095D496EC938E
:10281000D4978AE091E08D939C93EAEEF1E01182E7
:102820001082138212821582148270E060E08BE5C0
:1028300091E00C941510789484B5826084BD84B5C1
:10284000816084BD85B5826085BD85B5816085BDAB
:1028500080916E00816080936E0010928100809163
:1028600081008260809381008091810081608093EB
:102870008100809180008160809380008091B10010
:1028800084608093B1008091B00081608093B0003B
:1028900080917A00846080937A0080917A008260CF
:1028A00080937A0080917A00816080937A00809191
:1028B0007A00806880937A001092C10061E086E01F
:1028C0000E94B90340E050E0BA0180EF91E00E941D
:1028D000DD1063E080EF91E00E949B0970E060E012
:1028E00080EF91E00E94130E8FEF9FEF9093030211
:1028F00080930202909301028093000282E0809311
:1029000004028093050282E090E09093FD018093A1
:10291000FC018FE090E09093FF018093FE0142E183
:1029200050E066E371E080EF91E00E94400380E4B4
:10293000382E0FEF1FEF98E0992EC4E1D0E024E687
:10294000E22EF12C32E0832E48ECC42ED12C50E044
:10295000A52E50E0B52E30927C0080917A008064E4
:1029600080937A0080917A0086FDFCCF8091780078
:1029700060917900762F682F072E000C880B990B39
:102980000E94631520E030E44CE955E40E94C21532
:1029900020E030EC4FE754E40E94C61620E030E01F
:1029A00040E251E40E94C6160E9438177093E80175
:1029B0006093E7011093010200930002109203025A
:1029C000109202029092040290920502D093FD01AF
:1029D000C093FC01F092FF01E092FE012B01770F02
:1029E000660877084AE0C301B20177FE0DC06DE2C8
:1029F00080EF91E00E946A0C66277727CB0164196B
:102A00007509860997094AE00E94C70F42E050E025
:102A100069E471E080EF91E00E9440036091E7017A
:102A20007091E801072E000C880B990B0E9463152A
:102A300020E030E040EA51E40E946E1718167CF561
:102A400061E086E00E946D036FE070E08CE491E04D
:102A50000E9415108092040280920502D093FD011D
:102A6000C093FC01D092FF01C092FE014091EE01A3
:102A70005091EF016091EA017091EB0180EF91E0DC
:102A80000E94400368EE73E080E090E00E940F0433
:102A9000A114B10409F45FCF0E9400005CCF60E094
:102AA00086E00E946D036FE070E08CE591E0D0CF8E
:102AB0008091EA019091EB01009711F00C94461877
:102AC0000895E89409C097FB3EF490958095709521
:102AD00061957F4F8F4F9F4F9923A9F0F92F96E96A
:102AE000BB279395F695879577956795B795F111DF
:102AF000F8CFFAF4BB0F11F460FF1BC06F5F7F4F7C
:102B00008F4F9F4F16C0882311F096E911C077238D
:102B100021F09EE8872F762F05C0662371F096E896
:102B2000862F70E060E02AF09A95660F771F881F65
:102B3000DAF7880F9695879597F90895990F000809
:102B4000550FAA0BE0E8FEEF16161706E807F9077F
:102B5000C0F012161306E407F50798F0621B730B1A
:102B6000840B950B39F40A2661F0232B242B252B9B
:102B700021F408950A2609F4A140A6958FEF811D3E
:102B8000811D08950E94D5150C9446160E94381692
:102B900038F00E943F1620F0952311F00C942F1668
:102BA0000C94351611240C947A160E94571670F363
:102BB000959FC1F3950F50E0551F629FF001729FE2
:102BC000BB27F00DB11D639FAA27F00DB11DAA1FF1
:102BD000649F6627B00DA11D661F829F2227B00D3E
:102BE000A11D621F739FB00DA11D621F839FA00DC9
:102BF000611D221F749F3327A00D611D231F849F19
:102C0000600D211D822F762F6A2F11249F5750406F
:102C10009AF0F1F088234AF0EE0FFF1FBB1F661FEA
:102C2000771F881F91505040A9F79E3F510580F0B3
:102C30000C942F160C947A165F3FE4F3983ED4F36D
:102C4000869577956795B795F795E7959F5FC1F757
:102C5000FE2B880F911D9695879597F9089597F902
:102C60009F6780E870E060E008959FEF80EC089532
:102C700000240A941616170618060906089500245B
:102C80000A9412161306140605060895092E0394D5
:102C9000000C11F4882352F0BB0F40F4BF2B11F449
:102CA00060FF04C06F5F7F4F8F4F9F4F089557FDA8
:102CB0009058440F551F59F05F3F71F04795880FAA
:102CC00097FB991F61F09F3F79F087950895121641
:102CD00013061406551FF2CF4695F1DF08C01616ED
:102CE00017061806991FF1CF86957105610508949E
:102CF0000895E894BB2766277727CB0197F90895B5
:102D00002F923F924F925F926F927F928F929F92FB
:102D1000AF92BF92CF92DF92EF92FF920F931F93E9
:102D2000CF93DF93CDB7DEB7CA1BDB0B0FB6F8949A
:102D3000DEBF0FBECDBF09942A88398848885F84DA
:102D40006E847D848C849B84AA84B984C884DF804B
:102D5000EE80FD800C811B81AA81B981CE0FD11D2F
:102D60000FB6F894DEBF0FBECDBFED010895A29F50
:102D7000B001B39FC001A39F700D811D1124911D4F
:102D8000B29F700D811D1124911D08950E94DA16C5
:102D90000C9446160E943F1658F00E94381640F0D8
:102DA00029F45F3F29F00C942F1651110C947A16D8
:102DB0000C9435160E94571668F39923B1F35523E6
:102DC00091F3951B550BBB27AA276217730784073E
:102DD00038F09F5F5F4F220F331F441FAA1FA9F3D4
:102DE00035D00E2E3AF0E0E832D091505040E695C2
:102DF000001CCAF72BD0FE2F29D0660F771F881F23
:102E0000BB1F261737074807AB07B0E809F0BB0B15
:102E1000802DBF01FF2793585F4F3AF09E3F510529
:102E200078F00C942F160C947A165F3FE4F3983EDA
:102E3000D4F3869577956795B795F7959F5FC9F712
:102E4000880F911D9695879597F90895E1E0660F93
:102E5000771F881FBB1F621773078407BA0720F00C
:102E6000621B730B840BBA0BEE1F88F7E095089575
:102E70000E943F176894B1110C947A1608950E942D
:102E80005F1688F09F5798F0B92F9927B751B0F087
:102E9000E1F0660F771F881F991F1AF0BA95C9F7DE
:102EA00014C0B13091F00E947916B1E008950C94ED
:102EB0007916672F782F8827B85F39F0B93FCCF3A0
:102EC000869577956795B395D9F73EF4909580955B
:102ED000709561957F4F8F4F9F4F08950E949E156B
:102EE00008F48FEF0895A1E21A2EAA1BBB1BFD0167
:102EF0000DC0AA1FBB1FEE1FFF1FA217B307E407D9
:102F0000F50720F0A21BB30BE40BF50B661F771F30
:102F1000881F991F1A9469F7609570958095909510
:102F20009B01AC01BD01CF0108950E94B716332368
:102F300012F48A1B9B0B0C949F170E94B716B7FFC5
:102F40000895821B930B0895EE0FFF1F0590F491D7
:102F5000E02D09940F931F93CF93DF938230910557
:102F600010F482E090E0E0913502F091360230E01A
:102F700020E0B0E0A0E0309799F42115310509F484
:102F80004AC0281B390B24303105D8F58A819B8132
:102F90006115710589F1FB0193838283FE0111C0E4
:102FA000408151810281138148175907E0F0481789
:102FB000590799F4109761F012960C931297139693
:102FC0001C933296CF01DF91CF911F910F910895FD
:102FD0000093350210933602F4CF2115310551F0DC
:102FE0004217530738F0A901DB019A01BD01DF0147
:102FF000F801C1CFEF01F9CF9093360280933502EB
:10300000CDCFFE01E20FF31F81939193225031093E
:1030100039832883D7CF2091330230913402232B78
:1030200041F4209102013091030130933402209346
:10303000330220910001309101012115310541F445
:103040002DB73EB74091040150910501241B350B6B
:10305000E0913302F0913402E217F307A0F42E1B43
:103060003F0B2817390778F0AC014E5F5F4F2417EC
:10307000350748F04E0F5F1F5093340240933302E0
:10308000819391939FCFF0E0E0E09CCFCF93DF93CB
:103090000097E9F0FC01329713821282A091350269
:1030A000B0913602ED0130E020E01097A1F42081CC
:1030B0003181820F931F20913302309134022817FF
:1030C000390709F061C0F0933402E0933302DF91D5
:1030D000CF910895EA01CE17DF07E8F54A815B81B9
:1030E0009E0141155105B1F7E901FB83EA8349913E
:1030F0005991C40FD51FEC17FD0761F480819181B0
:103100000296840F951FE9019983888382819381B8
:103110009B838A83F0E0E0E012968D919C91139757
:103120000097B9F52D913C911197CD010296820F30
:10313000931F20913302309134022817390739F652
:10314000309751F51092360210923502B093340246
:10315000A0933302BCCFD383C28340815181840FBB
:10316000951FC817D90761F44E5F5F4F8881998119
:10317000480F591F518340838A819B8193838283A7
:103180002115310509F0B0CFF0933602E0933502F6
:103190009ECFFD01DC01C0CF13821282D7CFB0E0F9
:1031A000A0E0E5EDF8E10C9482168C01009751F453
:1031B000CB010E94AA178C01C801CDB7DEB7E0E1B0
:1031C0000C949E16FC01E60FF71F9C01225031095A
:1031D000E217F30708F49DC0D901CD91DC91119756
:1031E000C617D70798F0C530D10530F3CE01049744
:1031F0008617970708F3C61BD70B2297C193D19365
:103200006D937C93CF010E944618D6CF5B01AC1A18
:10321000BD0A4C018C0E9D1EA0913502B091360264
:10322000512C412CF12CE12C109731F58091330277
:10323000909134028815990509F05CC0461657062E
:1032400008F058C08091000190910101009741F46D
:103250008DB79EB74091040150910501841B950BD9
:10326000E817F90708F055C0F0933402E0933302F1
:10327000F90171836083A0CF8D919C911197129673
:103280006C90129713967C901397A815B90559F571
:103290006C0142E0C40ED11CCA14DB0420F1AC0165
:1032A0004A195B09DA011296159780F062827382DF
:1032B00051834083D9016D937C93E114F10471F043
:1032C000D7011396FC93EE93129776CF22968C0F2C
:1032D0009D1FF90191838083F301EFCFF0933602B4
:1032E000E093350269CF4816590608F42C017D0198
:1032F000D3019ACFCB010E94AA177C01009749F015
:10330000AE01B8010E949119C8010E9446188701B8
:1033100053CF10E000E050CF81E090E0F8940C949F
:10332000A119FB01DC0102C001900D9241505040F7
:10333000D8F70895FB01DC0101900D920020E1F720
:10334000089513E0C5E1D3E004C0FE010E94A41774
:0C3350002196C631D107C9F7F894FFCFD1
:10335C00000037028000000000006A0C4003C40F1C
:10336C00C30F88052009EE08850804084508160FC8
:10337C00240A9B099109960607077807130E9B0DE3
:10338C003C0DDD1027054C612074656D7065726114
:10339C00747572612065733A0020430056656E7433
:1033AC00696C61646F723A204F4E200056656E74E2
:0C33BC00696C61646F723A204F46460055
:00000001FF
